:0C0000002DC0FECFFDCFFCCFFBCFFACF10
:10000C00F9CFF8CFF7CFF6CFF5CF4EC0F3CF81C0F5
:10001C00C4C0F0CFEFCFEECFEDCF1027E8036400D4
:10002C000A00010000100001100001000000000097
:10003C000000242531642C2531642C2531640A0DF3
:10004C00000001000200380004000A003A00000021
:10005C00F894EE27ECBBF1E0FBBFEBBFE5BF8DE006
:10006C00A2E0BB27ED938A95E9F780E094E0A0E647
:10007C00ED930197E9F7EEE4F0E085919591009707
:10008C0061F0A591B59105901590BF01F001059017
:10009C000D920197E1F7FB01F0CFEFE5EDBFE4E046
:1000AC00EEBFC0E6D1E091C0EA93FA93EFB7EA93C2
:1000BC00C5D31BB10CB1E12FEC7189F4EA2DA394DB
:1000CC00F0E0E05AFE4F0083E0E4EA1509F4AA24BC
:1000DC00C394E0E4EC1519F4CC24689420F809914D
:1000EC001991E991EFBFF991E99118951A93CC20E8
:1000FC00F1F3ED2DD394F0E0E05AFE4F1081E0E4E3
:10010C00ED1509F4DD24F894CA947894E12F199133
:10011C000895AA93EA93FA93EFB7EA9338D2E030B2
:10012C0099F035D2E150E093E201E091E101EF5F0B
:10013C00E093E1012FD2E081ECB9A091E101A03470
:10014C0019F4E0E0E093E101E991EFBFF991E99155
:10015C00A9911895AA93A091E201A034E1F3F89427
:10016C0016D2E03011F45D9914C0E091E001EF5F1C
:10017C00E093E0010FD2A881A083A091E001A0340C
:10018C0019F4E0E0E093E00102D2EF5FE093E201CA
:10019C0002C0E881ECB9789416C0EA93E5B1E0931B
:1001AC00E301E9911895AA93E881E066E7B981E348
:1001BC008A95F1F7E5B7EF78E069E5BF8895EF77B9
:1001CC00E5BFE091E30121960895E7E0E7BBE0E0AD
:1001DC00E8BBE4BBE5BBE8E6E1BBE8E0E2BBE0E0A2
:1001EC00E3BFE2BFEFBDEEBDEDBDECBDE7BDE6BDCF
:1001FC00EBBDEABDE9BDE8BDE2BDE5BDE4BDE3BDD7
:10020C00E9BFE5BFEBB9E8EDEAB9E6E8E0BDE0E04F
:10021C00E0BDE7E0E9B9E0E8E8B9E0E6E7B9EEE827
:10022C00E6B9E0E0E0BFEDB9E6BF7894B8D1B7D15C
:10023C00B6D1959A969AA5E0B6DF4E2E5524A4E039
:10024C00B2DF6E2E7724A2E0AEDF8E2E9924AAE0C8
:10025C00B0E0EBD1E0E0EC1590F5A9D18E169F063D
:10026C0014F0939801C0939A41DFBE2EE5E5EB158F
:10027C0069F4EEE3F0E0FA93EA93F301A7D1F2010B
:10028C00A5D1F401A3D18CE04BD12E96E1E4EB1572
:10029C0009F4959AE2E4EB1509F49598E3E4EB156F
:1002AC0009F4969AE4E4EB1509F49698EAE5EB1553
:1002BC0009F49398EDE4EB1509F4939A0CC0CC2057
:1002CC0051F475D1E815F90524F49398C198C09AA6
:1002DC0002C0939AC098AFCFFFCF7BD1AA813ADFEF
:1002EC00A881B981ED91FD913196FE93EE93239601
:1002FC0008956FD126979ED210E0AC85BD85E0E0C5
:10030C00F0E0ED93FC93EA89FB893196EA8BFB8B49
:10031C003197E4912E2FE03009F4FCC0E12FE0304E
:10032C0031F4253211F411E001C056D1F2C0E130A4
:10033C00A1F4253211F450D1EBC012E040E000E002
:10034C002D3211F401E0E5C02B3211F44BE2E1C087
:10035C00203211F440E2DDC002C0E23039F450E04A
:10036C0013E0203311F40068D4C003C0E33009F06B
:10037C00D0C0203310F02A3308F007C0AAE05A9FEF
:10038C00502DE22FE0535E0FC4C0E22FE33639F458
:10039C002AD12CD128D1A481AA932CD1B9C0E3376E
:1003AC0029F42ED12FD1DCD01E2F07C0E03749F411
:1003BC0027D128D1E0D01E2F086002600F7730E0E3
:1003CC002DC0E43611F0E93611F4046002C0E537B3
:1003DC0029F4E6E2F0E01FD115E00BC0E83511F48A
:1003EC00086003C0E83709F093C0E0E3F0E013D1F4
:1003FC0014E002FF11C004D111D1AB85AA2332F451
:10040C00EA85FB85F9D1EA87FB874DE2403011F094
:10041C001F5F01C00B7F02C0F3D000D100FD10C0E4
:10042C00151770F407FF08C002FF04C00B7F242FC0
:10043C00115001C020E301C020E2CED05150F0CFCA
:10044C00312F01FF15C0303091F003FF05C0EE8154
:10045C00FF812591E0D005C0AE81BF812D91AE8387
:10046C00BF83BAD0503009F051503150ECCF47C057
:10047C0020E3EE81FF81D5D1E887F987EE81FF81FA
:10048C003296C9D0E885F985AA85BB85AE17BF071A
:10049C0050F02F5FA885B985EA85FB85EA1BFB0B1D
:1004AC00EA87FB87EFCF2A3328F003FF02C0295FCE
:1004BC0001C0295D04FD19C0213320F4A885B9853C
:1004CC00119709F409C0531710F000FF01C011C0B7
:1004DC0020E207FF0AC020E3006102FF06C00B7F89
:1004EC004A9388D0503009F0515076D0503009F0F2
:1004FC0051503150A885B985129708F0B9CF00FF3B
:10050C0007C0503029F05150E0E2EA9373D0F9CF94
:10051C0010E0F9CEAC85BD8580D193D16496089559
:10052C00FF92F82E26978AD1DE01149661D18D01A7
:10053C00E0E0EC83ED83EE83EF83DE01189658D177
:10054C006CD1FA93EA931A930A93E3E7F1E0FA93E6
:10055C00EA93DE011896CDDE78D12896FF900895A7
:10056C0038D0A991B991EE27FF276D91662311F030
:10057C003196FBCF08952DD0AA27BB27E991F9918D
:10058C000590002011F01196FBCFFD010895E0912C
:10059C00E2010895E150F0E0E056FE4F0895939883
:1005AC00A8ECB0E042D0939AA4E6B0E03EC0F401CF
:1005BC002FD1ABD0DF01CB01E8E4F1EE62E070E4C7
:1005CC00D2D06CD04F01EDE2F0E0089521D12DD1C5
:1005DC000895BA93AA9308952A93AD85BE85EF85A5
:1005EC00F88909950895E889F98908953497E88B75
:1005FC00F98B0895AD85BE85EF85F8890995089529
:10060C00F2DFF4CFA889B989149607D1EE83FF8362
:10061C00AE81BF810895EE83FF830895A889B989BF
:10062C001496FBD0EA87FB870895109639F086E67E
:10063C009EE00197F1F7A8951197C9F708955523F6
:10064C0042F4503811F4E0FF04C03196691F791F51
:10065C006BF050E8572711F45F9373C05F3F31F094
:10066C00660F000C57956795752F08955F930020C2
:10067C000AF073C06CC050E8192E1522880F991F10
:10068C009527550F879550E8072E0522660F771F83
:10069C007527550F67950895689401C0E8945F938A
:1006AC00F2DF703818F07F3F08F44BC056E1571B4F
:1006BC00AAF4519558300EF4593030F0EFEFFFEFAB
:1006CC006FEF7FE777F91AC077275523B9F0EE0F54
:1006DC00FF1F661F771F5A95D1F710C07727583028
:1006EC0028F0EF2FF62F672F5850F9CF552331F004
:1006FC0076956795F795E7955A95D1F700200AF40A
:10070C007FD05F910895689401C0E8943097604061
:10071C007040B1F0002426F0772312F4009470D0CE
:10072C00172E7EE1112032F07A95EE0FFF1F661F17
:10073C00111CF9CFEF2FF62F612D5F938ADF5F919C
:10074C000895EE27FF27662777275F910895EFEF2F
:10075C00FFEF6FE77FEF5F910895EFEFFFEF6FE72C
:10076C007FE75F9108955F9386DF703821F4112045
:10077C000AF4EDCFF2CF903809F4E3CF01240894BA
:10078C00970B1BF4D4F30020F3CF792F1F932F93E7
:10079C003F934F93112411272227332744275527A2
:1007AC0090E2AE17BF078607410730F0AE1BBF0BB8
:1007BC00860B410B089401C08894551F221F331FD0
:1007CC00111CAA1FBB1F881F441F9A9551F7F901D2
:1007DC00612D4F913F912F911F91662332F0550F50
:1007EC00EE1FFF1F661F7A9543F229DF5F91089574
:1007FC000024AF0DB01D0895F195E195F0400895DA
:10080C00F09560957095E195FF4F6F4F7F4F089570
:10081C006F2F660F660B762F0895ED91FC91119753
:10082C0008950590F491E02D08957A936A93FA93C4
:10083C00EA9308955A934A933A932A931A930A93F4
:10084C0008955D814C813B812A811981088108952D
:00000001FF
